{
  "_format": "hh-sol-artifact-1",
  "contractName": "MyEpicNFT",
  "sourceName": "contracts/MyEpicNFT.sol",
  "abi": [
    {
      "inputs": [],
      "stateMutability": "nonpayable",
      "type": "constructor"
    },
    {
      "anonymous": false,
      "inputs": [
        {
          "indexed": true,
          "internalType": "address",
          "name": "owner",
          "type": "address"
        },
        {
          "indexed": true,
          "internalType": "address",
          "name": "approved",
          "type": "address"
        },
        {
          "indexed": true,
          "internalType": "uint256",
          "name": "tokenId",
          "type": "uint256"
        }
      ],
      "name": "Approval",
      "type": "event"
    },
    {
      "anonymous": false,
      "inputs": [
        {
          "indexed": true,
          "internalType": "address",
          "name": "owner",
          "type": "address"
        },
        {
          "indexed": true,
          "internalType": "address",
          "name": "operator",
          "type": "address"
        },
        {
          "indexed": false,
          "internalType": "bool",
          "name": "approved",
          "type": "bool"
        }
      ],
      "name": "ApprovalForAll",
      "type": "event"
    },
    {
      "anonymous": false,
      "inputs": [
        {
          "indexed": false,
          "internalType": "address",
          "name": "sender",
          "type": "address"
        },
        {
          "indexed": false,
          "internalType": "uint256",
          "name": "tokenId",
          "type": "uint256"
        }
      ],
      "name": "NewEpicNFTMinted",
      "type": "event"
    },
    {
      "anonymous": false,
      "inputs": [
        {
          "indexed": true,
          "internalType": "address",
          "name": "from",
          "type": "address"
        },
        {
          "indexed": true,
          "internalType": "address",
          "name": "to",
          "type": "address"
        },
        {
          "indexed": true,
          "internalType": "uint256",
          "name": "tokenId",
          "type": "uint256"
        }
      ],
      "name": "Transfer",
      "type": "event"
    },
    {
      "inputs": [
        {
          "internalType": "address",
          "name": "to",
          "type": "address"
        },
        {
          "internalType": "uint256",
          "name": "tokenId",
          "type": "uint256"
        }
      ],
      "name": "approve",
      "outputs": [],
      "stateMutability": "nonpayable",
      "type": "function"
    },
    {
      "inputs": [
        {
          "internalType": "address",
          "name": "owner",
          "type": "address"
        }
      ],
      "name": "balanceOf",
      "outputs": [
        {
          "internalType": "uint256",
          "name": "",
          "type": "uint256"
        }
      ],
      "stateMutability": "view",
      "type": "function"
    },
    {
      "inputs": [
        {
          "internalType": "uint256",
          "name": "tokenId",
          "type": "uint256"
        }
      ],
      "name": "getApproved",
      "outputs": [
        {
          "internalType": "address",
          "name": "",
          "type": "address"
        }
      ],
      "stateMutability": "view",
      "type": "function"
    },
    {
      "inputs": [],
      "name": "getTotalNFTsMintedSoFar",
      "outputs": [
        {
          "internalType": "uint256",
          "name": "",
          "type": "uint256"
        }
      ],
      "stateMutability": "view",
      "type": "function"
    },
    {
      "inputs": [
        {
          "internalType": "address",
          "name": "owner",
          "type": "address"
        },
        {
          "internalType": "address",
          "name": "operator",
          "type": "address"
        }
      ],
      "name": "isApprovedForAll",
      "outputs": [
        {
          "internalType": "bool",
          "name": "",
          "type": "bool"
        }
      ],
      "stateMutability": "view",
      "type": "function"
    },
    {
      "inputs": [],
      "name": "makeAnEpicNFT",
      "outputs": [],
      "stateMutability": "nonpayable",
      "type": "function"
    },
    {
      "inputs": [],
      "name": "name",
      "outputs": [
        {
          "internalType": "string",
          "name": "",
          "type": "string"
        }
      ],
      "stateMutability": "view",
      "type": "function"
    },
    {
      "inputs": [
        {
          "internalType": "uint256",
          "name": "tokenId",
          "type": "uint256"
        }
      ],
      "name": "ownerOf",
      "outputs": [
        {
          "internalType": "address",
          "name": "",
          "type": "address"
        }
      ],
      "stateMutability": "view",
      "type": "function"
    },
    {
      "inputs": [
        {
          "internalType": "uint256",
          "name": "tokenId",
          "type": "uint256"
        }
      ],
      "name": "pickRandomFirstWord",
      "outputs": [
        {
          "internalType": "string",
          "name": "",
          "type": "string"
        }
      ],
      "stateMutability": "view",
      "type": "function"
    },
    {
      "inputs": [
        {
          "internalType": "uint256",
          "name": "tokenId",
          "type": "uint256"
        }
      ],
      "name": "pickRandomSecondWord",
      "outputs": [
        {
          "internalType": "string",
          "name": "",
          "type": "string"
        }
      ],
      "stateMutability": "view",
      "type": "function"
    },
    {
      "inputs": [
        {
          "internalType": "uint256",
          "name": "tokenId",
          "type": "uint256"
        }
      ],
      "name": "pickRandomThirdWord",
      "outputs": [
        {
          "internalType": "string",
          "name": "",
          "type": "string"
        }
      ],
      "stateMutability": "view",
      "type": "function"
    },
    {
      "inputs": [
        {
          "internalType": "address",
          "name": "from",
          "type": "address"
        },
        {
          "internalType": "address",
          "name": "to",
          "type": "address"
        },
        {
          "internalType": "uint256",
          "name": "tokenId",
          "type": "uint256"
        }
      ],
      "name": "safeTransferFrom",
      "outputs": [],
      "stateMutability": "nonpayable",
      "type": "function"
    },
    {
      "inputs": [
        {
          "internalType": "address",
          "name": "from",
          "type": "address"
        },
        {
          "internalType": "address",
          "name": "to",
          "type": "address"
        },
        {
          "internalType": "uint256",
          "name": "tokenId",
          "type": "uint256"
        },
        {
          "internalType": "bytes",
          "name": "data",
          "type": "bytes"
        }
      ],
      "name": "safeTransferFrom",
      "outputs": [],
      "stateMutability": "nonpayable",
      "type": "function"
    },
    {
      "inputs": [
        {
          "internalType": "address",
          "name": "operator",
          "type": "address"
        },
        {
          "internalType": "bool",
          "name": "approved",
          "type": "bool"
        }
      ],
      "name": "setApprovalForAll",
      "outputs": [],
      "stateMutability": "nonpayable",
      "type": "function"
    },
    {
      "inputs": [
        {
          "internalType": "bytes4",
          "name": "interfaceId",
          "type": "bytes4"
        }
      ],
      "name": "supportsInterface",
      "outputs": [
        {
          "internalType": "bool",
          "name": "",
          "type": "bool"
        }
      ],
      "stateMutability": "view",
      "type": "function"
    },
    {
      "inputs": [],
      "name": "symbol",
      "outputs": [
        {
          "internalType": "string",
          "name": "",
          "type": "string"
        }
      ],
      "stateMutability": "view",
      "type": "function"
    },
    {
      "inputs": [
        {
          "internalType": "uint256",
          "name": "tokenId",
          "type": "uint256"
        }
      ],
      "name": "tokenURI",
      "outputs": [
        {
          "internalType": "string",
          "name": "",
          "type": "string"
        }
      ],
      "stateMutability": "view",
      "type": "function"
    },
    {
      "inputs": [
        {
          "internalType": "address",
          "name": "from",
          "type": "address"
        },
        {
          "internalType": "address",
          "name": "to",
          "type": "address"
        },
        {
          "internalType": "uint256",
          "name": "tokenId",
          "type": "uint256"
        }
      ],
      "name": "transferFrom",
      "outputs": [],
      "stateMutability": "nonpayable",
      "type": "function"
    }
  ],
  "bytecode": "0x608060405260405180610160016040528061012f8152602001620040d761012f913960089080519060200190620000389291906200067e565b506040518060c001604052806040518060400160405280600381526020017f52616a000000000000000000000000000000000000000000000000000000000081525081526020016040518060400160405280600581526020017f506174656c00000000000000000000000000000000000000000000000000000081525081526020016040518060400160405280600581526020017f426861746800000000000000000000000000000000000000000000000000000081525081526020016040518060400160405280600581526020017f537061636500000000000000000000000000000000000000000000000000000081525081526020016040518060400160405280600481526020017f466172740000000000000000000000000000000000000000000000000000000081525081526020016040518060400160405280600581526020017f4e696e6a610000000000000000000000000000000000000000000000000000008152508152506009906006620001b69291906200070f565b506040518060c001604052806040518060400160405280600581526020017f4c6d66616f00000000000000000000000000000000000000000000000000000081525081526020016040518060400160405280600381526020017f4c6f6c000000000000000000000000000000000000000000000000000000000081525081526020016040518060400160405280600481526020017f486168610000000000000000000000000000000000000000000000000000000081525081526020016040518060400160405280600681526020017f416861416861000000000000000000000000000000000000000000000000000081525081526020016040518060400160405280600581526020017f416b68696c00000000000000000000000000000000000000000000000000000081525081526020016040518060400160405280600281526020017f4d66000000000000000000000000000000000000000000000000000000000000815250815250600a906006620003349291906200070f565b506040518060c001604052806040518060400160405280600681526020017f4c6567656e64000000000000000000000000000000000000000000000000000081525081526020016040518060400160405280600381526020017f437568000000000000000000000000000000000000000000000000000000000081525081526020016040518060400160405280600581526020017f4d6f72697300000000000000000000000000000000000000000000000000000081525081526020016040518060400160405280600281526020017f456c00000000000000000000000000000000000000000000000000000000000081525081526020016040518060400160405280600781526020017f4368616c7570610000000000000000000000000000000000000000000000000081525081526020016040518060400160405280600581526020017f436861706f000000000000000000000000000000000000000000000000000000815250815250600b906006620004b29291906200070f565b50348015620004c057600080fd5b506040518060400160405280600981526020017f5371756172654e465400000000000000000000000000000000000000000000008152506040518060400160405280600681526020017f53515541524500000000000000000000000000000000000000000000000000008152508160009080519060200190620005459291906200067e565b5080600190805190602001906200055e9291906200067e565b505050620005ac6040518060400160405280601e81526020017f54686973206973206d79204e465420636f6e74726163742e20576f6168210000815250620005b260201b620010af1760201c565b62000930565b6200065281604051602401620005c9919062000844565b6040516020818303038152906040527f41304fac000000000000000000000000000000000000000000000000000000007bffffffffffffffffffffffffffffffffffffffffffffffffffffffff19166020820180517bffffffffffffffffffffffffffffffffffffffffffffffffffffffff83818316178352505050506200065560201b60201c565b50565b60008151905060006a636f6e736f6c652e6c6f679050602083016000808483855afa5050505050565b8280546200068c90620008ba565b90600052602060002090601f016020900481019282620006b05760008555620006fc565b82601f10620006cb57805160ff1916838001178555620006fc565b82800160010185558215620006fc579182015b82811115620006fb578251825591602001919060010190620006de565b5b5090506200070b919062000776565b5090565b82805482825590600052602060002090810192821562000763579160200282015b8281111562000762578251829080519060200190620007519291906200067e565b509160200191906001019062000730565b5b50905062000772919062000795565b5090565b5b808211156200079157600081600090555060010162000777565b5090565b5b80821115620007b95760008181620007af9190620007bd565b5060010162000796565b5090565b508054620007cb90620008ba565b6000825580601f10620007df575062000800565b601f016020900490600052602060002090810190620007ff919062000776565b5b50565b6000620008108262000868565b6200081c818562000873565b93506200082e81856020860162000884565b62000839816200091f565b840191505092915050565b6000602082019050818103600083015262000860818462000803565b905092915050565b600081519050919050565b600082825260208201905092915050565b60005b83811015620008a457808201518184015260208101905062000887565b83811115620008b4576000848401525b50505050565b60006002820490506001821680620008d357607f821691505b60208210811415620008ea57620008e9620008f0565b5b50919050565b7f4e487b7100000000000000000000000000000000000000000000000000000000600052602260045260246000fd5b6000601f19601f8301169050919050565b61379780620009406000396000f3fe608060405234801561001057600080fd5b50600436106101165760003560e01c806370a08231116100a2578063b88d4fde11610071578063b88d4fde14610305578063c575757a14610321578063c87b56dd14610351578063de9d132f14610381578063e985e9c51461038b57610116565b806370a082311461026b57806395d89b411461029b578063a22cb465146102b9578063b187301f146102d557610116565b8063095ea7b3116100e9578063095ea7b3146101b757806323b872dd146101d35780632de38d68146101ef57806342842e0e1461021f5780636352211e1461023b57610116565b806301ffc9a71461011b578063060475901461014b57806306fdde0314610169578063081812fc14610187575b600080fd5b6101356004803603810190610130919061247f565b6103bb565b6040516101429190612b42565b60405180910390f35b61015361049d565b6040516101609190612d3d565b60405180910390f35b6101716104ae565b60405161017e9190612b5d565b60405180910390f35b6101a1600480360381019061019c91906124d1565b610540565b6040516101ae9190612ab2565b60405180910390f35b6101d160048036038101906101cc9190612443565b610586565b005b6101ed60048036038101906101e8919061233d565b61069e565b005b610209600480360381019061020491906124d1565b6106fe565b6040516102169190612b5d565b60405180910390f35b6102396004803603810190610234919061233d565b61081c565b005b610255600480360381019061025091906124d1565b61083c565b6040516102629190612ab2565b60405180910390f35b610285600480360381019061028091906122d8565b6108ee565b6040516102929190612d3d565b60405180910390f35b6102a36109a6565b6040516102b09190612b5d565b60405180910390f35b6102d360048036038101906102ce9190612407565b610a38565b005b6102ef60048036038101906102ea91906124d1565b610a4e565b6040516102fc9190612b5d565b60405180910390f35b61031f600480360381019061031a919061238c565b610b6c565b005b61033b600480360381019061033691906124d1565b610bce565b6040516103489190612b5d565b60405180910390f35b61036b600480360381019061036691906124d1565b610cec565b6040516103789190612b5d565b60405180910390f35b610389610dff565b005b6103a560048036038101906103a09190612301565b61101b565b6040516103b29190612b42565b60405180910390f35b60007f80ac58cd000000000000000000000000000000000000000000000000000000007bffffffffffffffffffffffffffffffffffffffffffffffffffffffff1916827bffffffffffffffffffffffffffffffffffffffffffffffffffffffff1916148061048657507f5b5e139f000000000000000000000000000000000000000000000000000000007bffffffffffffffffffffffffffffffffffffffffffffffffffffffff1916827bffffffffffffffffffffffffffffffffffffffffffffffffffffffff1916145b80610496575061049582611148565b5b9050919050565b60006104a960076111b2565b905090565b6060600080546104bd90612fd1565b80601f01602080910402602001604051908101604052809291908181526020018280546104e990612fd1565b80156105365780601f1061050b57610100808354040283529160200191610536565b820191906000526020600020905b81548152906001019060200180831161051957829003601f168201915b5050505050905090565b600061054b826111c0565b6004600083815260200190815260200160002060009054906101000a900473ffffffffffffffffffffffffffffffffffffffff169050919050565b60006105918261083c565b90508073ffffffffffffffffffffffffffffffffffffffff168373ffffffffffffffffffffffffffffffffffffffff161415610602576040517f08c379a00000000000000000000000000000000000000000000000000000000081526004016105f990612cfd565b60405180910390fd5b8073ffffffffffffffffffffffffffffffffffffffff1661062161120b565b73ffffffffffffffffffffffffffffffffffffffff161480610650575061064f8161064a61120b565b61101b565b5b61068f576040517f08c379a000000000000000000000000000000000000000000000000000000000815260040161068690612c9d565b60405180910390fd5b6106998383611213565b505050565b6106af6106a961120b565b826112cc565b6106ee576040517f08c379a00000000000000000000000000000000000000000000000000000000081526004016106e590612d1d565b60405180910390fd5b6106f9838383611361565b505050565b6060600061073261070e846115c8565b60405160200161071e9190612a6e565b604051602081830303815290604052611775565b905060098054905081610745919061307d565b905060098181548110610781577f4e487b7100000000000000000000000000000000000000000000000000000000600052603260045260246000fd5b90600052602060002001805461079690612fd1565b80601f01602080910402602001604051908101604052809291908181526020018280546107c290612fd1565b801561080f5780601f106107e45761010080835404028352916020019161080f565b820191906000526020600020905b8154815290600101906020018083116107f257829003601f168201915b5050505050915050919050565b61083783838360405180602001604052806000815250610b6c565b505050565b6000806002600084815260200190815260200160002060009054906101000a900473ffffffffffffffffffffffffffffffffffffffff169050600073ffffffffffffffffffffffffffffffffffffffff168173ffffffffffffffffffffffffffffffffffffffff1614156108e5576040517f08c379a00000000000000000000000000000000000000000000000000000000081526004016108dc90612cdd565b60405180910390fd5b80915050919050565b60008073ffffffffffffffffffffffffffffffffffffffff168273ffffffffffffffffffffffffffffffffffffffff16141561095f576040517f08c379a000000000000000000000000000000000000000000000000000000000815260040161095690612c5d565b60405180910390fd5b600360008373ffffffffffffffffffffffffffffffffffffffff1673ffffffffffffffffffffffffffffffffffffffff168152602001908152602001600020549050919050565b6060600180546109b590612fd1565b80601f01602080910402602001604051908101604052809291908181526020018280546109e190612fd1565b8015610a2e5780601f10610a0357610100808354040283529160200191610a2e565b820191906000526020600020905b815481529060010190602001808311610a1157829003601f168201915b5050505050905090565b610a4a610a4361120b565b83836117a8565b5050565b60606000610a82610a5e846115c8565b604051602001610a6e9190612a07565b604051602081830303815290604052611775565b9050600a8054905081610a95919061307d565b9050600a8181548110610ad1577f4e487b7100000000000000000000000000000000000000000000000000000000600052603260045260246000fd5b906000526020600020018054610ae690612fd1565b80601f0160208091040260200160405190810160405280929190818152602001828054610b1290612fd1565b8015610b5f5780601f10610b3457610100808354040283529160200191610b5f565b820191906000526020600020905b815481529060010190602001808311610b4257829003601f168201915b5050505050915050919050565b610b7d610b7761120b565b836112cc565b610bbc576040517f08c379a0000000000000000000000000000000000000000000000000000000008152600401610bb390612d1d565b60405180910390fd5b610bc884848484611915565b50505050565b60606000610c02610bde846115c8565b604051602001610bee91906129e5565b604051602081830303815290604052611775565b9050600b8054905081610c15919061307d565b9050600b8181548110610c51577f4e487b7100000000000000000000000000000000000000000000000000000000600052603260045260246000fd5b906000526020600020018054610c6690612fd1565b80601f0160208091040260200160405190810160405280929190818152602001828054610c9290612fd1565b8015610cdf5780601f10610cb457610100808354040283529160200191610cdf565b820191906000526020600020905b815481529060010190602001808311610cc257829003601f168201915b5050505050915050919050565b6060610cf7826111c0565b6000600660008481526020019081526020016000208054610d1790612fd1565b80601f0160208091040260200160405190810160405280929190818152602001828054610d4390612fd1565b8015610d905780601f10610d6557610100808354040283529160200191610d90565b820191906000526020600020905b815481529060010190602001808311610d7357829003601f168201915b505050505090506000610da1611971565b9050600081511415610db7578192505050610dfa565b600082511115610dec578082604051602001610dd492919061293f565b60405160208183030381529060405292505050610dfa565b610df584611988565b925050505b919050565b600f610e0b60076111b2565b10610e1557600080fd5b6000610e2160076111b2565b90506000610e2e826106fe565b90506000610e3b83610a4e565b90506000610e4884610bce565b90506000838383604051602001610e6193929190612963565b60405160208183030381529060405290506000600882604051602001610e88929190612994565b60405160208183030381529060405290506000610ecd83610ea8846119f0565b604051602001610eb9929190612a29565b6040516020818303038152906040526119f0565b9050600081604051602001610ee29190612a90565b6040516020818303038152906040529050610f316040518060400160405280601581526020017f0a2d2d2d2d2d2d2d2d2d2d2d2d2d2d2d2d2d2d2d2d00000000000000000000008152506110af565b610f5981604051602001610f4591906129c3565b6040516020818303038152906040526110af565b610f976040518060400160405280601581526020017f2d2d2d2d2d2d2d2d2d2d2d2d2d2d2d2d2d2d2d2d0a00000000000000000000008152506110af565b610fa13389611b8f565b610fab8882611bad565b610fb56007611c21565b610fd86040518060600160405280602581526020016136fd602591398933611c37565b7febb98688741ffa4c7589bf325de30cf7becb63de567842e1ccdb6cb949fdc82c3389604051611009929190612b19565b60405180910390a15050505050505050565b6000600560008473ffffffffffffffffffffffffffffffffffffffff1673ffffffffffffffffffffffffffffffffffffffff16815260200190815260200160002060008373ffffffffffffffffffffffffffffffffffffffff1673ffffffffffffffffffffffffffffffffffffffff16815260200190815260200160002060009054906101000a900460ff16905092915050565b611145816040516024016110c39190612b5d565b6040516020818303038152906040527f41304fac000000000000000000000000000000000000000000000000000000007bffffffffffffffffffffffffffffffffffffffffffffffffffffffff19166020820180517bffffffffffffffffffffffffffffffffffffffffffffffffffffffff8381831617835250505050611cd6565b50565b60007f01ffc9a7000000000000000000000000000000000000000000000000000000007bffffffffffffffffffffffffffffffffffffffffffffffffffffffff1916827bffffffffffffffffffffffffffffffffffffffffffffffffffffffff1916149050919050565b600081600001549050919050565b6111c981611cff565b611208576040517f08c379a00000000000000000000000000000000000000000000000000000000081526004016111ff90612cdd565b60405180910390fd5b50565b600033905090565b816004600083815260200190815260200160002060006101000a81548173ffffffffffffffffffffffffffffffffffffffff021916908373ffffffffffffffffffffffffffffffffffffffff160217905550808273ffffffffffffffffffffffffffffffffffffffff166112868361083c565b73ffffffffffffffffffffffffffffffffffffffff167f8c5be1e5ebec7d5bd14f71427d1e84f3dd0314c0f7b2291e5b200ac8c7c3b92560405160405180910390a45050565b6000806112d88361083c565b90508073ffffffffffffffffffffffffffffffffffffffff168473ffffffffffffffffffffffffffffffffffffffff16148061131a5750611319818561101b565b5b8061135857508373ffffffffffffffffffffffffffffffffffffffff1661134084610540565b73ffffffffffffffffffffffffffffffffffffffff16145b91505092915050565b8273ffffffffffffffffffffffffffffffffffffffff166113818261083c565b73ffffffffffffffffffffffffffffffffffffffff16146113d7576040517f08c379a00000000000000000000000000000000000000000000000000000000081526004016113ce90612bdd565b60405180910390fd5b600073ffffffffffffffffffffffffffffffffffffffff168273ffffffffffffffffffffffffffffffffffffffff161415611447576040517f08c379a000000000000000000000000000000000000000000000000000000000815260040161143e90612c1d565b60405180910390fd5b611452838383611d6b565b61145d600082611213565b6001600360008573ffffffffffffffffffffffffffffffffffffffff1673ffffffffffffffffffffffffffffffffffffffff16815260200190815260200160002060008282546114ad9190612ee7565b925050819055506001600360008473ffffffffffffffffffffffffffffffffffffffff1673ffffffffffffffffffffffffffffffffffffffff16815260200190815260200160002060008282546115049190612e06565b92505081905550816002600083815260200190815260200160002060006101000a81548173ffffffffffffffffffffffffffffffffffffffff021916908373ffffffffffffffffffffffffffffffffffffffff160217905550808273ffffffffffffffffffffffffffffffffffffffff168473ffffffffffffffffffffffffffffffffffffffff167fddf252ad1be2c89b69c2b068fc378daa952ba7f163c4a11628f55a4df523b3ef60405160405180910390a46115c3838383611d70565b505050565b60606000821415611610576040518060400160405280600181526020017f30000000000000000000000000000000000000000000000000000000000000008152509050611770565b600082905060005b6000821461164257808061162b90613034565b915050600a8261163b9190612e5c565b9150611618565b60008167ffffffffffffffff811115611684577f4e487b7100000000000000000000000000000000000000000000000000000000600052604160045260246000fd5b6040519080825280601f01601f1916602001820160405280156116b65781602001600182028036833780820191505090505b5090505b60008514611769576001826116cf9190612ee7565b9150600a856116de919061307d565b60306116ea9190612e06565b60f81b818381518110611726577f4e487b7100000000000000000000000000000000000000000000000000000000600052603260045260246000fd5b60200101907effffffffffffffffffffffffffffffffffffffffffffffffffffffffffffff1916908160001a905350600a856117629190612e5c565b94506116ba565b8093505050505b919050565b6000816040516020016117889190612928565b6040516020818303038152906040528051906020012060001c9050919050565b8173ffffffffffffffffffffffffffffffffffffffff168373ffffffffffffffffffffffffffffffffffffffff161415611817576040517f08c379a000000000000000000000000000000000000000000000000000000000815260040161180e90612c3d565b60405180910390fd5b80600560008573ffffffffffffffffffffffffffffffffffffffff1673ffffffffffffffffffffffffffffffffffffffff16815260200190815260200160002060008473ffffffffffffffffffffffffffffffffffffffff1673ffffffffffffffffffffffffffffffffffffffff16815260200190815260200160002060006101000a81548160ff0219169083151502179055508173ffffffffffffffffffffffffffffffffffffffff168373ffffffffffffffffffffffffffffffffffffffff167f17307eab39ab6107e8899845ad3d59bd9653f200f220920489ca2b5937696c31836040516119089190612b42565b60405180910390a3505050565b611920848484611361565b61192c84848484611d75565b61196b576040517f08c379a000000000000000000000000000000000000000000000000000000000815260040161196290612bbd565b60405180910390fd5b50505050565b606060405180602001604052806000815250905090565b6060611993826111c0565b600061199d611971565b905060008151116119bd57604051806020016040528060008152506119e8565b806119c7846115c8565b6040516020016119d892919061293f565b6040516020818303038152906040525b915050919050565b6060600082511415611a1357604051806020016040528060008152509050611b8a565b60006040518060600160405280604081526020016137226040913990506000600360028551611a429190612e06565b611a4c9190612e5c565b6004611a589190612e8d565b90506000602082611a699190612e06565b67ffffffffffffffff811115611aa8577f4e487b7100000000000000000000000000000000000000000000000000000000600052604160045260246000fd5b6040519080825280601f01601f191660200182016040528015611ada5781602001600182028036833780820191505090505b509050818152600183018586518101602084015b81831015611b49576003830192508251603f8160121c168501518253600182019150603f81600c1c168501518253600182019150603f8160061c168501518253600182019150603f8116850151825360018201915050611aee565b600389510660018114611b635760028114611b7357611b7e565b613d3d60f01b6002830352611b7e565b603d60f81b60018303525b50505050508093505050505b919050565b611ba9828260405180602001604052806000815250611f0c565b5050565b611bb682611cff565b611bf5576040517f08c379a0000000000000000000000000000000000000000000000000000000008152600401611bec90612c7d565b60405180910390fd5b80600660008481526020019081526020016000209080519060200190611c1c929190612164565b505050565b6001816000016000828254019250508190555050565b611cd1838383604051602401611c4f93929190612b7f565b6040516020818303038152906040527fe3849f79000000000000000000000000000000000000000000000000000000007bffffffffffffffffffffffffffffffffffffffffffffffffffffffff19166020820180517bffffffffffffffffffffffffffffffffffffffffffffffffffffffff8381831617835250505050611cd6565b505050565b60008151905060006a636f6e736f6c652e6c6f679050602083016000808483855afa5050505050565b60008073ffffffffffffffffffffffffffffffffffffffff166002600084815260200190815260200160002060009054906101000a900473ffffffffffffffffffffffffffffffffffffffff1673ffffffffffffffffffffffffffffffffffffffff1614159050919050565b505050565b505050565b6000611d968473ffffffffffffffffffffffffffffffffffffffff16611f67565b15611eff578373ffffffffffffffffffffffffffffffffffffffff1663150b7a02611dbf61120b565b8786866040518563ffffffff1660e01b8152600401611de19493929190612acd565b602060405180830381600087803b158015611dfb57600080fd5b505af1925050508015611e2c57506040513d601f19601f82011682018060405250810190611e2991906124a8565b60015b611eaf573d8060008114611e5c576040519150601f19603f3d011682016040523d82523d6000602084013e611e61565b606091505b50600081511415611ea7576040517f08c379a0000000000000000000000000000000000000000000000000000000008152600401611e9e90612bbd565b60405180910390fd5b805181602001fd5b63150b7a0260e01b7bffffffffffffffffffffffffffffffffffffffffffffffffffffffff1916817bffffffffffffffffffffffffffffffffffffffffffffffffffffffff191614915050611f04565b600190505b949350505050565b611f168383611f8a565b611f236000848484611d75565b611f62576040517f08c379a0000000000000000000000000000000000000000000000000000000008152600401611f5990612bbd565b60405180910390fd5b505050565b6000808273ffffffffffffffffffffffffffffffffffffffff163b119050919050565b600073ffffffffffffffffffffffffffffffffffffffff168273ffffffffffffffffffffffffffffffffffffffff161415611ffa576040517f08c379a0000000000000000000000000000000000000000000000000000000008152600401611ff190612cbd565b60405180910390fd5b61200381611cff565b15612043576040517f08c379a000000000000000000000000000000000000000000000000000000000815260040161203a90612bfd565b60405180910390fd5b61204f60008383611d6b565b6001600360008473ffffffffffffffffffffffffffffffffffffffff1673ffffffffffffffffffffffffffffffffffffffff168152602001908152602001600020600082825461209f9190612e06565b92505081905550816002600083815260200190815260200160002060006101000a81548173ffffffffffffffffffffffffffffffffffffffff021916908373ffffffffffffffffffffffffffffffffffffffff160217905550808273ffffffffffffffffffffffffffffffffffffffff16600073ffffffffffffffffffffffffffffffffffffffff167fddf252ad1be2c89b69c2b068fc378daa952ba7f163c4a11628f55a4df523b3ef60405160405180910390a461216060008383611d70565b5050565b82805461217090612fd1565b90600052602060002090601f01602090048101928261219257600085556121d9565b82601f106121ab57805160ff19168380011785556121d9565b828001600101855582156121d9579182015b828111156121d85782518255916020019190600101906121bd565b5b5090506121e691906121ea565b5090565b5b808211156122035760008160009055506001016121eb565b5090565b600061221a61221584612d7d565b612d58565b90508281526020810184848401111561223257600080fd5b61223d848285612f8f565b509392505050565b600081359050612254816136a0565b92915050565b600081359050612269816136b7565b92915050565b60008135905061227e816136ce565b92915050565b600081519050612293816136ce565b92915050565b600082601f8301126122aa57600080fd5b81356122ba848260208601612207565b91505092915050565b6000813590506122d2816136e5565b92915050565b6000602082840312156122ea57600080fd5b60006122f884828501612245565b91505092915050565b6000806040838503121561231457600080fd5b600061232285828601612245565b925050602061233385828601612245565b9150509250929050565b60008060006060848603121561235257600080fd5b600061236086828701612245565b935050602061237186828701612245565b9250506040612382868287016122c3565b9150509250925092565b600080600080608085870312156123a257600080fd5b60006123b087828801612245565b94505060206123c187828801612245565b93505060406123d2878288016122c3565b925050606085013567ffffffffffffffff8111156123ef57600080fd5b6123fb87828801612299565b91505092959194509250565b6000806040838503121561241a57600080fd5b600061242885828601612245565b92505060206124398582860161225a565b9150509250929050565b6000806040838503121561245657600080fd5b600061246485828601612245565b9250506020612475858286016122c3565b9150509250929050565b60006020828403121561249157600080fd5b600061249f8482850161226f565b91505092915050565b6000602082840312156124ba57600080fd5b60006124c884828501612284565b91505092915050565b6000602082840312156124e357600080fd5b60006124f1848285016122c3565b91505092915050565b61250381612f1b565b82525050565b61251281612f2d565b82525050565b600061252382612dc3565b61252d8185612dd9565b935061253d818560208601612f9e565b6125468161316a565b840191505092915050565b600061255c82612dce565b6125668185612dea565b9350612576818560208601612f9e565b61257f8161316a565b840191505092915050565b600061259582612dce565b61259f8185612dfb565b93506125af818560208601612f9e565b80840191505092915050565b600081546125c881612fd1565b6125d28186612dfb565b945060018216600081146125ed57600181146125fe57612631565b60ff19831686528186019350612631565b61260785612dae565b60005b838110156126295781548189015260018201915060208101905061260a565b838801955050505b50505092915050565b6000612647602583612dfb565b91506126528261317b565b602582019050919050565b600061266a603283612dea565b9150612675826131ca565b604082019050919050565b600061268d602583612dea565b915061269882613219565b604082019050919050565b60006126b0601c83612dea565b91506126bb82613268565b602082019050919050565b60006126d3600a83612dfb565b91506126de82613291565b600a82019050919050565b60006126f6602483612dea565b9150612701826132ba565b604082019050919050565b6000612719601983612dea565b915061272482613309565b602082019050919050565b600061273c606383612dfb565b915061274782613332565b606382019050919050565b600061275f600b83612dfb565b915061276a826133cd565b600b82019050919050565b6000612782600d83612dfb565b915061278d826133f6565b600d82019050919050565b60006127a5602983612dea565b91506127b08261341f565b604082019050919050565b60006127c8602e83612dea565b91506127d38261346e565b604082019050919050565b60006127eb600283612dfb565b91506127f6826134bd565b600282019050919050565b600061280e603e83612dea565b9150612819826134e6565b604082019050919050565b6000612831602083612dea565b915061283c82613535565b602082019050919050565b6000612854600a83612dfb565b915061285f8261355e565b600a82019050919050565b6000612877601883612dea565b915061288282613587565b602082019050919050565b600061289a602183612dea565b91506128a5826135b0565b604082019050919050565b60006128bd600a83612dfb565b91506128c8826135ff565b600a82019050919050565b60006128e0601d83612dfb565b91506128eb82613628565b601d82019050919050565b6000612903602e83612dea565b915061290e82613651565b604082019050919050565b61292281612f85565b82525050565b6000612934828461258a565b915081905092915050565b600061294b828561258a565b9150612957828461258a565b91508190509392505050565b600061296f828661258a565b915061297b828561258a565b9150612987828461258a565b9150819050949350505050565b60006129a082856125bb565b91506129ac828461258a565b91506129b782612775565b91508190509392505050565b60006129ce8261263a565b91506129da828461258a565b915081905092915050565b60006129f0826126c6565b91506129fc828461258a565b915081905092915050565b6000612a1282612752565b9150612a1e828461258a565b915081905092915050565b6000612a3482612847565b9150612a40828561258a565b9150612a4b8261272f565b9150612a57828461258a565b9150612a62826127de565b91508190509392505050565b6000612a79826128b0565b9150612a85828461258a565b915081905092915050565b6000612a9b826128d3565b9150612aa7828461258a565b915081905092915050565b6000602082019050612ac760008301846124fa565b92915050565b6000608082019050612ae260008301876124fa565b612aef60208301866124fa565b612afc6040830185612919565b8181036060830152612b0e8184612518565b905095945050505050565b6000604082019050612b2e60008301856124fa565b612b3b6020830184612919565b9392505050565b6000602082019050612b576000830184612509565b92915050565b60006020820190508181036000830152612b778184612551565b905092915050565b60006060820190508181036000830152612b998186612551565b9050612ba86020830185612919565b612bb560408301846124fa565b949350505050565b60006020820190508181036000830152612bd68161265d565b9050919050565b60006020820190508181036000830152612bf681612680565b9050919050565b60006020820190508181036000830152612c16816126a3565b9050919050565b60006020820190508181036000830152612c36816126e9565b9050919050565b60006020820190508181036000830152612c568161270c565b9050919050565b60006020820190508181036000830152612c7681612798565b9050919050565b60006020820190508181036000830152612c96816127bb565b9050919050565b60006020820190508181036000830152612cb681612801565b9050919050565b60006020820190508181036000830152612cd681612824565b9050919050565b60006020820190508181036000830152612cf68161286a565b9050919050565b60006020820190508181036000830152612d168161288d565b9050919050565b60006020820190508181036000830152612d36816128f6565b9050919050565b6000602082019050612d526000830184612919565b92915050565b6000612d62612d73565b9050612d6e8282613003565b919050565b6000604051905090565b600067ffffffffffffffff821115612d9857612d9761313b565b5b612da18261316a565b9050602081019050919050565b60008190508160005260206000209050919050565b600081519050919050565b600081519050919050565b600082825260208201905092915050565b600082825260208201905092915050565b600081905092915050565b6000612e1182612f85565b9150612e1c83612f85565b9250827fffffffffffffffffffffffffffffffffffffffffffffffffffffffffffffffff03821115612e5157612e506130ae565b5b828201905092915050565b6000612e6782612f85565b9150612e7283612f85565b925082612e8257612e816130dd565b5b828204905092915050565b6000612e9882612f85565b9150612ea383612f85565b9250817fffffffffffffffffffffffffffffffffffffffffffffffffffffffffffffffff0483118215151615612edc57612edb6130ae565b5b828202905092915050565b6000612ef282612f85565b9150612efd83612f85565b925082821015612f1057612f0f6130ae565b5b828203905092915050565b6000612f2682612f65565b9050919050565b60008115159050919050565b60007fffffffff0000000000000000000000000000000000000000000000000000000082169050919050565b600073ffffffffffffffffffffffffffffffffffffffff82169050919050565b6000819050919050565b82818337600083830152505050565b60005b83811015612fbc578082015181840152602081019050612fa1565b83811115612fcb576000848401525b50505050565b60006002820490506001821680612fe957607f821691505b60208210811415612ffd57612ffc61310c565b5b50919050565b61300c8261316a565b810181811067ffffffffffffffff8211171561302b5761302a61313b565b5b80604052505050565b600061303f82612f85565b91507fffffffffffffffffffffffffffffffffffffffffffffffffffffffffffffffff821415613072576130716130ae565b5b600182019050919050565b600061308882612f85565b915061309383612f85565b9250826130a3576130a26130dd565b5b828206905092915050565b7f4e487b7100000000000000000000000000000000000000000000000000000000600052601160045260246000fd5b7f4e487b7100000000000000000000000000000000000000000000000000000000600052601260045260246000fd5b7f4e487b7100000000000000000000000000000000000000000000000000000000600052602260045260246000fd5b7f4e487b7100000000000000000000000000000000000000000000000000000000600052604160045260246000fd5b6000601f19601f8301169050919050565b7f68747470733a2f2f6e6674707265766965772e30786465762e636f6465732f3f60008201527f636f64653d000000000000000000000000000000000000000000000000000000602082015250565b7f4552433732313a207472616e7366657220746f206e6f6e20455243373231526560008201527f63656976657220696d706c656d656e7465720000000000000000000000000000602082015250565b7f4552433732313a207472616e736665722066726f6d20696e636f72726563742060008201527f6f776e6572000000000000000000000000000000000000000000000000000000602082015250565b7f4552433732313a20746f6b656e20616c7265616479206d696e74656400000000600082015250565b7f54484952445f574f524400000000000000000000000000000000000000000000600082015250565b7f4552433732313a207472616e7366657220746f20746865207a65726f2061646460008201527f7265737300000000000000000000000000000000000000000000000000000000602082015250565b7f4552433732313a20617070726f766520746f2063616c6c657200000000000000600082015250565b7f222c20226465736372697074696f6e223a20224120686967686c79206163636c60008201527f61696d656420636f6c6c656374696f6e206f6620737175617265732e222c202260208201527f696d616765223a2022646174613a696d6167652f7376672b786d6c3b6261736560408201527f36342c0000000000000000000000000000000000000000000000000000000000606082015250565b7f5345434f4e445f574f5244000000000000000000000000000000000000000000600082015250565b7f3c2f746578743e3c2f7376673e00000000000000000000000000000000000000600082015250565b7f4552433732313a2061646472657373207a65726f206973206e6f74206120766160008201527f6c6964206f776e65720000000000000000000000000000000000000000000000602082015250565b7f45524337323155524953746f726167653a2055524920736574206f66206e6f6e60008201527f6578697374656e7420746f6b656e000000000000000000000000000000000000602082015250565b7f227d000000000000000000000000000000000000000000000000000000000000600082015250565b7f4552433732313a20617070726f76652063616c6c6572206973206e6f7420746f60008201527f6b656e206f776e6572206e6f7220617070726f76656420666f7220616c6c0000602082015250565b7f4552433732313a206d696e7420746f20746865207a65726f2061646472657373600082015250565b7f7b226e616d65223a202200000000000000000000000000000000000000000000600082015250565b7f4552433732313a20696e76616c696420746f6b656e2049440000000000000000600082015250565b7f4552433732313a20617070726f76616c20746f2063757272656e74206f776e6560008201527f7200000000000000000000000000000000000000000000000000000000000000602082015250565b7f46495253545f574f524400000000000000000000000000000000000000000000600082015250565b7f646174613a6170706c69636174696f6e2f6a736f6e3b6261736536342c000000600082015250565b7f4552433732313a2063616c6c6572206973206e6f7420746f6b656e206f776e6560008201527f72206e6f7220617070726f766564000000000000000000000000000000000000602082015250565b6136a981612f1b565b81146136b457600080fd5b50565b6136c081612f2d565b81146136cb57600080fd5b50565b6136d781612f39565b81146136e257600080fd5b50565b6136ee81612f85565b81146136f957600080fd5b5056fe416e204e465420772f20494420257320686173206265656e206d696e74656420746f2025734142434445464748494a4b4c4d4e4f505152535455565758595a6162636465666768696a6b6c6d6e6f707172737475767778797a303132333435363738392b2fa264697066735822122081f9f22ca49597cfaed9c43a89b1f7dd02f537000e078f420f5bb1316b40be4c64736f6c634300080100333c73766720786d6c6e733d27687474703a2f2f7777772e77332e6f72672f323030302f73766727207072657365727665417370656374526174696f3d27784d696e594d696e206d656574272076696577426f783d273020302033353020333530273e3c7374796c653e2e62617365207b2066696c6c3a2077686974653b20666f6e742d66616d696c793a2073657269663b20666f6e742d73697a653a20323470783b207d3c2f7374796c653e3c726563742077696474683d273130302527206865696768743d2731303025272066696c6c3d27626c61636b27202f3e3c7465787420783d273530252720793d273530252720636c6173733d27626173652720646f6d696e616e742d626173656c696e653d276d6964646c652720746578742d616e63686f723d276d6964646c65273e",
  "linkReferences": {},
  "deployedLinkReferences": {}
}